:0601140075A0FF12011AA4
:0C011A00E4FFE4FE0EBEC8FC0FBF64F65C
:0101260022B6
:10000300E5B064FB600302009D75A07F12011AE551
:10001300B064FB600302011375A03F12011AE5B03F
:1000230064FB600302011375A01F12011AE5B0649B
:10003300FB600302011375A00F12011AE5B064FB04
:10004300600302011375A00712011AE5B064FB6097
:100053000302011375A00312011AE5B064FB6003E8
:1000630002011375A00112011AE5B064FB600302DB
:100073000113E4F5A012011AE5B064FB6003020169
:1000830013120114E5B064FB600302011375A07F32
:10009300E5B064FB70030200032275A0FE12011A8F
:1000A300E5B064FB606A75A0FC12011AE5B064FB5D
:1000B300605E75A0F812011AE5B064FB605275A08A
:1000C300F012011AE5B064FB604675A0E012011A54
:1000D300E5B064FB603A75A0C012011AE5B064FB99
:1000E300602E75A08012011AE5B064FB6022E4F56E
:1000F300A012011AE5B064FB6016120114E5B064A6
:10010300FB600D75A0FEE5B064FB600302000322F3
:0101130022C9
:03000000020127D3
:0C012700787FE4F6D8FD75810702000324
:00000001FF
